{
  "_format": "hh-sol-artifact-1",
  "contractName": "LockonVesting",
  "sourceName": "contracts/LockonVesting.sol",
  "abi": [
    {
      "inputs": [
        {
          "internalType": "address",
          "name": "target",
          "type": "address"
        }
      ],
      "name": "AddressEmptyCode",
      "type": "error"
    },
    {
      "inputs": [
        {
          "internalType": "address",
          "name": "account",
          "type": "address"
        }
      ],
      "name": "AddressInsufficientBalance",
      "type": "error"
    },
    {
      "inputs": [],
      "name": "FailedInnerCall",
      "type": "error"
    },
    {
      "inputs": [],
      "name": "InvalidInitialization",
      "type": "error"
    },
    {
      "inputs": [],
      "name": "NotInitializing",
      "type": "error"
    },
    {
      "inputs": [
        {
          "internalType": "address",
          "name": "owner",
          "type": "address"
        }
      ],
      "name": "OwnableInvalidOwner",
      "type": "error"
    },
    {
      "inputs": [
        {
          "internalType": "address",
          "name": "account",
          "type": "address"
        }
      ],
      "name": "OwnableUnauthorizedAccount",
      "type": "error"
    },
    {
      "inputs": [
        {
          "internalType": "address",
          "name": "token",
          "type": "address"
        }
      ],
      "name": "SafeERC20FailedOperation",
      "type": "error"
    },
    {
      "anonymous": false,
      "inputs": [
        {
          "indexed": false,
          "internalType": "uint64",
          "name": "version",
          "type": "uint64"
        }
      ],
      "name": "Initialized",
      "type": "event"
    },
    {
      "anonymous": false,
      "inputs": [
        {
          "indexed": true,
          "internalType": "address",
          "name": "previousOwner",
          "type": "address"
        },
        {
          "indexed": true,
          "internalType": "address",
          "name": "newOwner",
          "type": "address"
        }
      ],
      "name": "OwnershipTransferred",
      "type": "event"
    },
    {
      "anonymous": false,
      "inputs": [
        {
          "indexed": true,
          "internalType": "address",
          "name": "sender",
          "type": "address"
        },
        {
          "indexed": false,
          "internalType": "uint256",
          "name": "vestingId",
          "type": "uint256"
        },
        {
          "indexed": false,
          "internalType": "uint256",
          "name": "releasedAmount",
          "type": "uint256"
        }
      ],
      "name": "UserClaimedVesting",
      "type": "event"
    },
    {
      "anonymous": false,
      "inputs": [
        {
          "indexed": true,
          "internalType": "address",
          "name": "sender",
          "type": "address"
        },
        {
          "indexed": false,
          "internalType": "address",
          "name": "vestingWallet",
          "type": "address"
        },
        {
          "indexed": false,
          "internalType": "uint256",
          "name": "amount",
          "type": "uint256"
        },
        {
          "indexed": false,
          "internalType": "uint256",
          "name": "vestingStartTime",
          "type": "uint256"
        },
        {
          "indexed": false,
          "internalType": "uint256",
          "name": "vestingDuration",
          "type": "uint256"
        },
        {
          "indexed": false,
          "internalType": "uint256",
          "name": "vestingId",
          "type": "uint256"
        },
        {
          "indexed": false,
          "internalType": "string",
          "name": "vestingTag",
          "type": "string"
        }
      ],
      "name": "VestingWalletAdded",
      "type": "event"
    },
    {
      "stateMutability": "payable",
      "type": "fallback"
    },
    {
      "inputs": [
        {
          "internalType": "address",
          "name": "_vestingAddress",
          "type": "address"
        },
        {
          "internalType": "uint256",
          "name": "_amount",
          "type": "uint256"
        },
        {
          "internalType": "uint64",
          "name": "_vestingDuration",
          "type": "uint64"
        },
        {
          "internalType": "string",
          "name": "_vestingTag",
          "type": "string"
        }
      ],
      "name": "addVestingWallet",
      "outputs": [],
      "stateMutability": "nonpayable",
      "type": "function"
    },
    {
      "inputs": [
        {
          "internalType": "uint256",
          "name": "_vestingId",
          "type": "uint256"
        }
      ],
      "name": "getVestingEndTime",
      "outputs": [
        {
          "internalType": "uint256",
          "name": "",
          "type": "uint256"
        }
      ],
      "stateMutability": "view",
      "type": "function"
    },
    {
      "inputs": [
        {
          "internalType": "address",
          "name": "_vestingWallet",
          "type": "address"
        }
      ],
      "name": "getVestingIds",
      "outputs": [
        {
          "internalType": "uint256[]",
          "name": "",
          "type": "uint256[]"
        }
      ],
      "stateMutability": "view",
      "type": "function"
    },
    {
      "inputs": [
        {
          "internalType": "address",
          "name": "_owner",
          "type": "address"
        },
        {
          "internalType": "address",
          "name": "_lockToken",
          "type": "address"
        }
      ],
      "name": "initialize",
      "outputs": [],
      "stateMutability": "nonpayable",
      "type": "function"
    },
    {
      "inputs": [],
      "name": "lockToken",
      "outputs": [
        {
          "internalType": "contract IERC20",
          "name": "",
          "type": "address"
        }
      ],
      "stateMutability": "view",
      "type": "function"
    },
    {
      "inputs": [],
      "name": "owner",
      "outputs": [
        {
          "internalType": "address",
          "name": "",
          "type": "address"
        }
      ],
      "stateMutability": "view",
      "type": "function"
    },
    {
      "inputs": [
        {
          "internalType": "uint256",
          "name": "_vestingId",
          "type": "uint256"
        }
      ],
      "name": "releasable",
      "outputs": [
        {
          "internalType": "uint256",
          "name": "",
          "type": "uint256"
        }
      ],
      "stateMutability": "view",
      "type": "function"
    },
    {
      "inputs": [],
      "name": "renounceOwnership",
      "outputs": [],
      "stateMutability": "nonpayable",
      "type": "function"
    },
    {
      "inputs": [
        {
          "internalType": "address",
          "name": "_lockToken",
          "type": "address"
        }
      ],
      "name": "setLockTokenAddress",
      "outputs": [],
      "stateMutability": "nonpayable",
      "type": "function"
    },
    {
      "inputs": [
        {
          "internalType": "address",
          "name": "newOwner",
          "type": "address"
        }
      ],
      "name": "transferOwnership",
      "outputs": [],
      "stateMutability": "nonpayable",
      "type": "function"
    },
    {
      "inputs": [
        {
          "internalType": "uint256",
          "name": "_vestingId",
          "type": "uint256"
        }
      ],
      "name": "userClaimVesting",
      "outputs": [],
      "stateMutability": "nonpayable",
      "type": "function"
    },
    {
      "inputs": [
        {
          "internalType": "uint256",
          "name": "",
          "type": "uint256"
        }
      ],
      "name": "vestingWallet",
      "outputs": [
        {
          "internalType": "address",
          "name": "vestingAddress",
          "type": "address"
        },
        {
          "internalType": "uint256",
          "name": "vestedAmount",
          "type": "uint256"
        },
        {
          "internalType": "uint256",
          "name": "releasedAmount",
          "type": "uint256"
        },
        {
          "internalType": "uint256",
          "name": "vestingStartTime",
          "type": "uint256"
        },
        {
          "internalType": "uint256",
          "name": "vestingDuration",
          "type": "uint256"
        },
        {
          "internalType": "string",
          "name": "vestingTag",
          "type": "string"
        }
      ],
      "stateMutability": "view",
      "type": "function"
    },
    {
      "stateMutability": "payable",
      "type": "receive"
    }
  ],
  "bytecode": "0x608060405234801561001057600080fd5b5061151d806100206000396000f3fe6080604052600436106100a55760003560e01c8063d8652a5611610061578063d8652a56146101af578063d994c842146101cf578063e3e690d5146101fd578063e4bf01a81461022a578063f2fde38b1461024a578063ff5b13401461026a57005b806327b351a0146100ae5780632b824eb6146100ce578063485cc95514610109578063715018a6146101295780638da5cb5b1461013e578063bca7a9e21461018f57005b366100ac57005b005b3480156100ba57600080fd5b506100ac6100c9366004610f49565b61028a565b3480156100da57600080fd5b506100ee6100e9366004610f49565b610486565b60405161010096959493929190610fb2565b60405180910390f35b34801561011557600080fd5b506100ac610124366004611013565b610552565b34801561013557600080fd5b506100ac61067e565b34801561014a57600080fd5b507f9016d09d72d40fdae2fd8ceac6b6234c7706214fd39c1cd1e609a0528c199300546001600160a01b03165b6040516001600160a01b039091168152602001610100565b34801561019b57600080fd5b50600354610177906001600160a01b031681565b3480156101bb57600080fd5b506100ac6101ca36600461105c565b610692565b3480156101db57600080fd5b506101ef6101ea366004610f49565b6108fe565b604051908152602001610100565b34801561020957600080fd5b5061021d610218366004611141565b61094a565b604051610100919061115c565b34801561023657600080fd5b506101ef610245366004610f49565b6109b6565b34801561025657600080fd5b506100ac610265366004611141565b610b61565b34801561027657600080fd5b506100ac610285366004611141565b610b9f565b600081815260016020526040812090548211156102c25760405162461bcd60e51b81526004016102b9906111a0565b60405180910390fd5b80546001600160a01b031633146103295760405162461bcd60e51b815260206004820152602560248201527f4c6f636b6f6e2056657374696e673a20556e617574686f72697a656420746f20604482015264636c61696d60d81b60648201526084016102b9565b6000610334836109b6565b9050600081116103865760405162461bcd60e51b815260206004820181905260248201527f4c6f636b6f6e2056657374696e673a204e6f7468696e6720746f20636c61696d60448201526064016102b9565b8082600201600082825461039a91906111f8565b90915550506003546040516370a0823160e01b81523060048201526001600160a01b03909116906370a0823190602401602060405180830381865afa1580156103e7573d6000803e3d6000fd5b505050506040513d601f19601f8201168201806040525081019061040b919061120b565b81111561042a5760405162461bcd60e51b81526004016102b990611224565b8154600354610446916001600160a01b03918216911683610bef565b604080518481526020810183905233917f9a89db31231300cbabcb18145a7198f0cabf60b557221c7019b2a9f8ae45007b910160405180910390a2505050565b60016020819052600091825260409091208054918101546002820154600383015460048401546005850180546001600160a01b039097169694959394929391926104cf90611271565b80601f01602080910402602001604051908101604052809291908181526020018280546104fb90611271565b80156105485780601f1061051d57610100808354040283529160200191610548565b820191906000526020600020905b81548152906001019060200180831161052b57829003601f168201915b5050505050905086565b7ff0c57e16840df040f15088dc2f81fe391c3923bec73e23a9662efc9c229c6a008054600160401b810460ff16159067ffffffffffffffff166000811580156105985750825b905060008267ffffffffffffffff1660011480156105b55750303b155b9050811580156105c3575080155b156105e15760405163f92ee8a960e01b815260040160405180910390fd5b845467ffffffffffffffff19166001178555831561060b57845460ff60401b1916600160401b1785555b61061487610c53565b600380546001600160a01b0319166001600160a01b038816179055831561067557845460ff60401b19168555604051600181527fc7f505b2f371ae2175ee4913f4499e1f2633a7b5936321eed1cdaeb6115181d29060200160405180910390a15b50505050505050565b610686610c5b565b6106906000610cb6565b565b61069a610c5b565b600083116107085760405162461bcd60e51b815260206004820152603560248201527f4c6f636b6f6e2056657374696e673a2056657374696e6720616d6f756e74206d60448201527407573742062652067726561746572207468616e203605c1b60648201526084016102b9565b6001600160a01b03841661072e5760405162461bcd60e51b81526004016102b9906112ab565b60008054908061073d836112f3565b90915550506040805160c0810182526001600160a01b03868116825260208083018781526000848601818152426060870190815267ffffffffffffffff8a166080880190815260a088018a81528454855260019687905298909320875181546001600160a01b031916971696909617865592519385019390935591516002840155516003830155516004820155915190919060058201906107de908261135a565b5050506001600160a01b03848116600090815260026020908152604080832083548154600181018355918552929093209092015560035490516370a0823160e01b81523360048201529116906370a0823190602401602060405180830381865afa158015610850573d6000803e3d6000fd5b505050506040513d601f19601f82011682018060405250810190610874919061120b565b8311156108935760405162461bcd60e51b81526004016102b990611224565b6003546108ab906001600160a01b0316333086610d27565b336001600160a01b03167f3b85082f0140eda42eda50268bdfc305dd102a55262183ea0c9136b80a6d0d0f85854286600054876040516108f09695949392919061141a565b60405180910390a250505050565b600080548211156109215760405162461bcd60e51b81526004016102b9906111a0565b6000828152600160205260409020600481015460039091015461094491906111f8565b92915050565b6001600160a01b0381166000908152600260209081526040918290208054835181840281018401909452808452606093928301828280156109aa57602002820191906000526020600020905b815481526020019060010190808311610996575b50505050509050919050565b600080548211156109d95760405162461bcd60e51b81526004016102b9906111a0565b6000828152600160208181526040808420815160c08101835281546001600160a01b031681529381015492840192909252600282015490830152600381015460608301526004810154608083015260058101805460a084019190610a3c90611271565b80601f0160208091040260200160405190810160405280929190818152602001828054610a6890611271565b8015610ab55780601f10610a8a57610100808354040283529160200191610ab5565b820191906000526020600020905b815481529060010190602001808311610a9857829003601f168201915b5050505050815250509050600042905081606001518167ffffffffffffffff161015610ae5575060009392505050565b610aee846108fe565b8167ffffffffffffffff161115610b1b5781604001518260200151610b13919061145d565b949350505050565b604082015160808301516060840151610b3e9067ffffffffffffffff851661145d565b8460200151610b4d9190611470565b610b579190611487565b610b13919061145d565b610b69610c5b565b6001600160a01b038116610b9357604051631e4fbdf760e01b8152600060048201526024016102b9565b610b9c81610cb6565b50565b610ba7610c5b565b6001600160a01b038116610bcd5760405162461bcd60e51b81526004016102b9906112ab565b600380546001600160a01b0319166001600160a01b0392909216919091179055565b6040516001600160a01b03838116602483015260448201839052610c4e91859182169063a9059cbb906064015b604051602081830303815290604052915060e01b6020820180516001600160e01b038381831617835250505050610d66565b505050565b610b69610dc9565b33610c8d7f9016d09d72d40fdae2fd8ceac6b6234c7706214fd39c1cd1e609a0528c199300546001600160a01b031690565b6001600160a01b0316146106905760405163118cdaa760e01b81523360048201526024016102b9565b7f9016d09d72d40fdae2fd8ceac6b6234c7706214fd39c1cd1e609a0528c19930080546001600160a01b031981166001600160a01b03848116918217845560405192169182907f8be0079c531659141344cd1fd0a4f28419497f9722a3daafe3b4186f6b6457e090600090a3505050565b6040516001600160a01b038481166024830152838116604483015260648201839052610d609186918216906323b872dd90608401610c1c565b50505050565b6000610d7b6001600160a01b03841683610e12565b90508051600014158015610da0575080806020019051810190610d9e91906114a9565b155b15610c4e57604051635274afe760e01b81526001600160a01b03841660048201526024016102b9565b7ff0c57e16840df040f15088dc2f81fe391c3923bec73e23a9662efc9c229c6a0054600160401b900460ff1661069057604051631afcd79f60e31b815260040160405180910390fd5b6060610e2083836000610e27565b9392505050565b606081471015610e4c5760405163cd78605960e01b81523060048201526024016102b9565b600080856001600160a01b03168486604051610e6891906114cb565b60006040518083038185875af1925050503d8060008114610ea5576040519150601f19603f3d011682016040523d82523d6000602084013e610eaa565b606091505b5091509150610eba868383610ec4565b9695505050505050565b606082610ed957610ed482610f20565b610e20565b8151158015610ef057506001600160a01b0384163b155b15610f1957604051639996b31560e01b81526001600160a01b03851660048201526024016102b9565b5080610e20565b805115610f305780518082602001fd5b604051630a12f52160e11b815260040160405180910390fd5b600060208284031215610f5b57600080fd5b5035919050565b60005b83811015610f7d578181015183820152602001610f65565b50506000910152565b60008151808452610f9e816020860160208601610f62565b601f01601f19169290920160200192915050565b60018060a01b038716815285602082015284604082015283606082015282608082015260c060a08201526000610feb60c0830184610f86565b98975050505050505050565b80356001600160a01b038116811461100e57600080fd5b919050565b6000806040838503121561102657600080fd5b61102f83610ff7565b915061103d60208401610ff7565b90509250929050565b634e487b7160e01b600052604160045260246000fd5b6000806000806080858703121561107257600080fd5b61107b85610ff7565b935060208501359250604085013567ffffffffffffffff80821682146110a057600080fd5b909250606086013590808211156110b657600080fd5b818701915087601f8301126110ca57600080fd5b8135818111156110dc576110dc611046565b604051601f8201601f19908116603f0116810190838211818310171561110457611104611046565b816040528281528a602084870101111561111d57600080fd5b82602086016020830137600060208483010152809550505050505092959194509250565b60006020828403121561115357600080fd5b610e2082610ff7565b6020808252825182820181905260009190848201906040850190845b8181101561119457835183529284019291840191600101611178565b50909695505050505050565b60208082526022908201527f4c6f636b6f6e2056657374696e673a20496e76616c69642076657374696e67206040820152611a5960f21b606082015260800190565b634e487b7160e01b600052601160045260246000fd5b80820180821115610944576109446111e2565b60006020828403121561121d57600080fd5b5051919050565b6020808252602d908201527f4c6f636b6f6e2056657374696e673a2053656e6465722062616c616e6365206960408201526c73206e6f7420656e6f7567682160981b606082015260800190565b600181811c9082168061128557607f821691505b6020821081036112a557634e487b7160e01b600052602260045260246000fd5b50919050565b60208082526028908201527f4c6f636b6f6e2056657374696e673a205a65726f2061646472657373206e6f7460408201526708185b1b1bddd95960c21b606082015260800190565b600060018201611305576113056111e2565b5060010190565b601f821115610c4e57600081815260208120601f850160051c810160208610156113335750805b601f850160051c820191505b818110156113525782815560010161133f565b505050505050565b815167ffffffffffffffff81111561137457611374611046565b611388816113828454611271565b8461130c565b602080601f8311600181146113bd57600084156113a55750858301515b600019600386901b1c1916600185901b178555611352565b600085815260208120601f198616915b828110156113ec578886015182559484019460019091019084016113cd565b508582101561140a5787850151600019600388901b60f8161c191681555b5050505050600190811b01905550565b60018060a01b038716815285602082015284604082015267ffffffffffffffff8416606082015282608082015260c060a08201526000610feb60c0830184610f86565b81810381811115610944576109446111e2565b8082028115828204841417610944576109446111e2565b6000826114a457634e487b7160e01b600052601260045260246000fd5b500490565b6000602082840312156114bb57600080fd5b81518015158114610e2057600080fd5b600082516114dd818460208701610f62565b919091019291505056fea2646970667358221220b6d85cb53c3f7f705c8297c62bcf6092600460bb087165872f734c80fe8ee7ba64736f6c63430008150033",
  "linkReferences": {},
  "deployedLinkReferences": {}
}