{
  "_format": "hh-sol-artifact-1",
  "contractName": "LockToken",
  "sourceName": "contracts/LockToken.sol",
  "abi": [
    {
      "inputs": [
        {
          "internalType": "address",
          "name": "spender",
          "type": "address"
        },
        {
          "internalType": "uint256",
          "name": "allowance",
          "type": "uint256"
        },
        {
          "internalType": "uint256",
          "name": "needed",
          "type": "uint256"
        }
      ],
      "name": "ERC20InsufficientAllowance",
      "type": "error"
    },
    {
      "inputs": [
        {
          "internalType": "address",
          "name": "sender",
          "type": "address"
        },
        {
          "internalType": "uint256",
          "name": "balance",
          "type": "uint256"
        },
        {
          "internalType": "uint256",
          "name": "needed",
          "type": "uint256"
        }
      ],
      "name": "ERC20InsufficientBalance",
      "type": "error"
    },
    {
      "inputs": [
        {
          "internalType": "address",
          "name": "approver",
          "type": "address"
        }
      ],
      "name": "ERC20InvalidApprover",
      "type": "error"
    },
    {
      "inputs": [
        {
          "internalType": "address",
          "name": "receiver",
          "type": "address"
        }
      ],
      "name": "ERC20InvalidReceiver",
      "type": "error"
    },
    {
      "inputs": [
        {
          "internalType": "address",
          "name": "sender",
          "type": "address"
        }
      ],
      "name": "ERC20InvalidSender",
      "type": "error"
    },
    {
      "inputs": [
        {
          "internalType": "address",
          "name": "spender",
          "type": "address"
        }
      ],
      "name": "ERC20InvalidSpender",
      "type": "error"
    },
    {
      "inputs": [],
      "name": "InvalidInitialization",
      "type": "error"
    },
    {
      "inputs": [],
      "name": "NotInitializing",
      "type": "error"
    },
    {
      "anonymous": false,
      "inputs": [
        {
          "indexed": true,
          "internalType": "address",
          "name": "owner",
          "type": "address"
        },
        {
          "indexed": true,
          "internalType": "address",
          "name": "spender",
          "type": "address"
        },
        {
          "indexed": false,
          "internalType": "uint256",
          "name": "value",
          "type": "uint256"
        }
      ],
      "name": "Approval",
      "type": "event"
    },
    {
      "anonymous": false,
      "inputs": [
        {
          "indexed": false,
          "internalType": "uint64",
          "name": "version",
          "type": "uint64"
        }
      ],
      "name": "Initialized",
      "type": "event"
    },
    {
      "anonymous": false,
      "inputs": [
        {
          "indexed": true,
          "internalType": "address",
          "name": "from",
          "type": "address"
        },
        {
          "indexed": true,
          "internalType": "address",
          "name": "to",
          "type": "address"
        },
        {
          "indexed": false,
          "internalType": "uint256",
          "name": "value",
          "type": "uint256"
        }
      ],
      "name": "Transfer",
      "type": "event"
    },
    {
      "inputs": [],
      "name": "BASE_DENOMINATOR",
      "outputs": [
        {
          "internalType": "uint256",
          "name": "",
          "type": "uint256"
        }
      ],
      "stateMutability": "view",
      "type": "function"
    },
    {
      "inputs": [],
      "name": "MAX_SUPPLY",
      "outputs": [
        {
          "internalType": "uint256",
          "name": "",
          "type": "uint256"
        }
      ],
      "stateMutability": "view",
      "type": "function"
    },
    {
      "inputs": [
        {
          "internalType": "address",
          "name": "owner",
          "type": "address"
        },
        {
          "internalType": "address",
          "name": "spender",
          "type": "address"
        }
      ],
      "name": "allowance",
      "outputs": [
        {
          "internalType": "uint256",
          "name": "",
          "type": "uint256"
        }
      ],
      "stateMutability": "view",
      "type": "function"
    },
    {
      "inputs": [
        {
          "internalType": "address",
          "name": "spender",
          "type": "address"
        },
        {
          "internalType": "uint256",
          "name": "value",
          "type": "uint256"
        }
      ],
      "name": "approve",
      "outputs": [
        {
          "internalType": "bool",
          "name": "",
          "type": "bool"
        }
      ],
      "stateMutability": "nonpayable",
      "type": "function"
    },
    {
      "inputs": [
        {
          "internalType": "address",
          "name": "account",
          "type": "address"
        }
      ],
      "name": "balanceOf",
      "outputs": [
        {
          "internalType": "uint256",
          "name": "",
          "type": "uint256"
        }
      ],
      "stateMutability": "view",
      "type": "function"
    },
    {
      "inputs": [],
      "name": "decimals",
      "outputs": [
        {
          "internalType": "uint8",
          "name": "",
          "type": "uint8"
        }
      ],
      "stateMutability": "view",
      "type": "function"
    },
    {
      "inputs": [
        {
          "internalType": "string",
          "name": "name",
          "type": "string"
        },
        {
          "internalType": "string",
          "name": "symbol",
          "type": "string"
        },
        {
          "internalType": "address",
          "name": "ownerAddress",
          "type": "address"
        },
        {
          "internalType": "address",
          "name": "operatorAddress",
          "type": "address"
        }
      ],
      "name": "initialize",
      "outputs": [],
      "stateMutability": "nonpayable",
      "type": "function"
    },
    {
      "inputs": [],
      "name": "name",
      "outputs": [
        {
          "internalType": "string",
          "name": "",
          "type": "string"
        }
      ],
      "stateMutability": "view",
      "type": "function"
    },
    {
      "inputs": [],
      "name": "symbol",
      "outputs": [
        {
          "internalType": "string",
          "name": "",
          "type": "string"
        }
      ],
      "stateMutability": "view",
      "type": "function"
    },
    {
      "inputs": [],
      "name": "totalSupply",
      "outputs": [
        {
          "internalType": "uint256",
          "name": "",
          "type": "uint256"
        }
      ],
      "stateMutability": "view",
      "type": "function"
    },
    {
      "inputs": [
        {
          "internalType": "address",
          "name": "to",
          "type": "address"
        },
        {
          "internalType": "uint256",
          "name": "value",
          "type": "uint256"
        }
      ],
      "name": "transfer",
      "outputs": [
        {
          "internalType": "bool",
          "name": "",
          "type": "bool"
        }
      ],
      "stateMutability": "nonpayable",
      "type": "function"
    },
    {
      "inputs": [
        {
          "internalType": "address",
          "name": "from",
          "type": "address"
        },
        {
          "internalType": "address",
          "name": "to",
          "type": "address"
        },
        {
          "internalType": "uint256",
          "name": "value",
          "type": "uint256"
        }
      ],
      "name": "transferFrom",
      "outputs": [
        {
          "internalType": "bool",
          "name": "",
          "type": "bool"
        }
      ],
      "stateMutability": "nonpayable",
      "type": "function"
    }
  ],
  "bytecode": "0x608060405234801561001057600080fd5b50610e1b806100206000396000f3fe608060405234801561001057600080fd5b50600436106100b45760003560e01c806370a082311161007157806370a08231146101595780638f15b4141461018f57806395d89b41146101a4578063a9059cbb146101ac578063bd859584146101bf578063dd62ed3e146101c857600080fd5b806306fdde03146100b9578063095ea7b3146100d757806318160ddd146100fa57806323b872dd1461012b578063313ce5671461013e57806332cb6b0c1461014d575b600080fd5b6100c16101db565b6040516100ce91906108de565b60405180910390f35b6100ea6100e5366004610948565b61029e565b60405190151581526020016100ce565b7f52c63247e1f47db19d5ce0460030c497f067ca4cebf71ba98eeadabe20bace02545b6040519081526020016100ce565b6100ea610139366004610972565b6102b8565b604051601281526020016100ce565b61011d6402540be40081565b61011d6101673660046109ae565b6001600160a01b03166000908152600080516020610dc6833981519152602052604090205490565b6101a261019d366004610a73565b6102dc565b005b6100c161046f565b6100ea6101ba366004610948565b6104ae565b61011d61271081565b61011d6101d6366004610af8565b6104bc565b7f52c63247e1f47db19d5ce0460030c497f067ca4cebf71ba98eeadabe20bace038054606091600080516020610dc68339815191529161021a90610b2b565b80601f016020809104026020016040519081016040528092919081815260200182805461024690610b2b565b80156102935780601f1061026857610100808354040283529160200191610293565b820191906000526020600020905b81548152906001019060200180831161027657829003601f168201915b505050505091505090565b6000336102ac818585610506565b60019150505b92915050565b6000336102c6858285610518565b6102d1858585610583565b506001949350505050565b7ff0c57e16840df040f15088dc2f81fe391c3923bec73e23a9662efc9c229c6a008054600160401b810460ff16159067ffffffffffffffff166000811580156103225750825b905060008267ffffffffffffffff16600114801561033f5750303b155b90508115801561034d575080155b1561036b5760405163f92ee8a960e01b815260040160405180910390fd5b845467ffffffffffffffff19166001178555831561039557845460ff60401b1916600160401b1785555b61039f89896105e2565b60006127106103b56402540be400611770610b7b565b6103bf9190610b92565b905060006127106103d76402540be400610fa0610b7b565b6103e19190610b92565b9050610402896103f36012600a610c98565b6103fd9085610b7b565b610633565b61041c886104126012600a610c98565b6103fd9084610b7b565b5050831561046457845460ff60401b19168555604051600181527fc7f505b2f371ae2175ee4913f4499e1f2633a7b5936321eed1cdaeb6115181d29060200160405180910390a15b505050505050505050565b7f52c63247e1f47db19d5ce0460030c497f067ca4cebf71ba98eeadabe20bace048054606091600080516020610dc68339815191529161021a90610b2b565b6000336102ac818585610583565b6001600160a01b0391821660009081527f52c63247e1f47db19d5ce0460030c497f067ca4cebf71ba98eeadabe20bace016020908152604080832093909416825291909152205490565b610513838383600161066d565b505050565b600061052484846104bc565b9050600019811461057d578181101561056e57604051637dc7a0d960e11b81526001600160a01b038416600482015260248101829052604481018390526064015b60405180910390fd5b61057d8484848403600061066d565b50505050565b6001600160a01b0383166105ad57604051634b637e8f60e11b815260006004820152602401610565565b6001600160a01b0382166105d75760405163ec442f0560e01b815260006004820152602401610565565b610513838383610755565b6105ea610893565b600080516020610dc68339815191527f52c63247e1f47db19d5ce0460030c497f067ca4cebf71ba98eeadabe20bace036106248482610cf2565b506004810161057d8382610cf2565b6001600160a01b03821661065d5760405163ec442f0560e01b815260006004820152602401610565565b61066960008383610755565b5050565b600080516020610dc68339815191526001600160a01b0385166106a65760405163e602df0560e01b815260006004820152602401610565565b6001600160a01b0384166106d057604051634a1406b160e11b815260006004820152602401610565565b6001600160a01b0380861660009081526001830160209081526040808320938816835292905220839055811561074e57836001600160a01b0316856001600160a01b03167f8c5be1e5ebec7d5bd14f71427d1e84f3dd0314c0f7b2291e5b200ac8c7c3b9258560405161074591815260200190565b60405180910390a35b5050505050565b600080516020610dc68339815191526001600160a01b03841661079157818160020160008282546107869190610db2565b909155506108039050565b6001600160a01b038416600090815260208290526040902054828110156107e45760405163391434e360e21b81526001600160a01b03861660048201526024810182905260448101849052606401610565565b6001600160a01b03851660009081526020839052604090209083900390555b6001600160a01b038316610821576002810180548390039055610840565b6001600160a01b03831660009081526020829052604090208054830190555b826001600160a01b0316846001600160a01b03167fddf252ad1be2c89b69c2b068fc378daa952ba7f163c4a11628f55a4df523b3ef8460405161088591815260200190565b60405180910390a350505050565b7ff0c57e16840df040f15088dc2f81fe391c3923bec73e23a9662efc9c229c6a0054600160401b900460ff166108dc57604051631afcd79f60e31b815260040160405180910390fd5b565b600060208083528351808285015260005b8181101561090b578581018301518582016040015282016108ef565b506000604082860101526040601f19601f8301168501019250505092915050565b80356001600160a01b038116811461094357600080fd5b919050565b6000806040838503121561095b57600080fd5b6109648361092c565b946020939093013593505050565b60008060006060848603121561098757600080fd5b6109908461092c565b925061099e6020850161092c565b9150604084013590509250925092565b6000602082840312156109c057600080fd5b6109c98261092c565b9392505050565b634e487b7160e01b600052604160045260246000fd5b600082601f8301126109f757600080fd5b813567ffffffffffffffff80821115610a1257610a126109d0565b604051601f8301601f19908116603f01168101908282118183101715610a3a57610a3a6109d0565b81604052838152866020858801011115610a5357600080fd5b836020870160208301376000602085830101528094505050505092915050565b60008060008060808587031215610a8957600080fd5b843567ffffffffffffffff80821115610aa157600080fd5b610aad888389016109e6565b95506020870135915080821115610ac357600080fd5b50610ad0878288016109e6565b935050610adf6040860161092c565b9150610aed6060860161092c565b905092959194509250565b60008060408385031215610b0b57600080fd5b610b148361092c565b9150610b226020840161092c565b90509250929050565b600181811c90821680610b3f57607f821691505b602082108103610b5f57634e487b7160e01b600052602260045260246000fd5b50919050565b634e487b7160e01b600052601160045260246000fd5b80820281158282048414176102b2576102b2610b65565b600082610baf57634e487b7160e01b600052601260045260246000fd5b500490565b600181815b80851115610bef578160001904821115610bd557610bd5610b65565b80851615610be257918102915b93841c9390800290610bb9565b509250929050565b600082610c06575060016102b2565b81610c13575060006102b2565b8160018114610c295760028114610c3357610c4f565b60019150506102b2565b60ff841115610c4457610c44610b65565b50506001821b6102b2565b5060208310610133831016604e8410600b8410161715610c72575081810a6102b2565b610c7c8383610bb4565b8060001904821115610c9057610c90610b65565b029392505050565b60006109c98383610bf7565b601f82111561051357600081815260208120601f850160051c81016020861015610ccb5750805b601f850160051c820191505b81811015610cea57828155600101610cd7565b505050505050565b815167ffffffffffffffff811115610d0c57610d0c6109d0565b610d2081610d1a8454610b2b565b84610ca4565b602080601f831160018114610d555760008415610d3d5750858301515b600019600386901b1c1916600185901b178555610cea565b600085815260208120601f198616915b82811015610d8457888601518255948401946001909101908401610d65565b5085821015610da25787850151600019600388901b60f8161c191681555b5050505050600190811b01905550565b808201808211156102b2576102b2610b6556fe52c63247e1f47db19d5ce0460030c497f067ca4cebf71ba98eeadabe20bace00a2646970667358221220c8e89ee594498a66586ccad091a724a4b1ca0bac334729e51bc8f98556dae93f64736f6c63430008150033",
  "linkReferences": {},
  "deployedLinkReferences": {}
}